:100000000C9434000C9446000C9446000C9446006A
:100010000C9448000C9446000C9446000C94460046
:100020000C9446000C9446000C9446000C94460038
:100030000C9446000C9446000C9446000C94460028
:100040000C9446000C9446000C9446000C94460018
:100050000C9446000C9446000C9446000C94460008
:100060000C9446000C94460011241FBECFEFD8E03C
:10007000DEBFCDBF21E0A0E0B1E001C01D92A23003
:10008000B207E1F70E9480000C9499000C940000E4
:100090001F920F920FB60F9211248F939F9388B1E6
:1000A000813049F088B1813131F088B1813219F065
:1000B00088B18133F1F485B18F5F85B980910001FA
:1000C0009091010101969093010180930001853088
:1000D000910529F498B180E1892788B90AC00A9767
:1000E00041F498B180E3892788B9109201011092F8
:1000F00000019F918F910F900FBE0F901F90189548
:1001000082E08093680081E080936C0078948FEFA8
:1001100084B981E387B991E02FE73AE186E0215085
:1001200030408040E1F700C0000088B1892788B9DD
:06013000F3CFF894FFCFAD
:00000001FF
