:100000000C9434000C943E000C943E000C943E0082
:100010000C943E000C943E000C943E000C943E0068
:100020000C943E000C943E000C943E000C943E0058
:100030000C943E000C943E000C943E000C943E0048
:100040000C943E000C943E000C943E000C943E0038
:100050000C943E000C943E000C943E000C943E0028
:100060000C943E000C943E0011241FBECFEFD8E04C
:10007000DEBFCDBF0E9440000C9479000C940000BC
:100080008FEF84B98AB987E880937A0080E48093FF
:100090007C00EAE7F0E0A8E7B0E020E034E044E0EC
:1000A000808180658083808184FFFDCF8D919C91CC
:1000B0001197B901681B790BCB01009739F00197B3
:1000C0007AE17A95F1F700C00097C9F785B18427E6
:1000D00085B98D919C911197009739F001975AE15C
:1000E0005A95F1F700C00097C9F785B1842785B903
:0600F000D7CFF894FFCF0A
:00000001FF
