S00D000044413554322E73726563D7
S11300000C9434000C943E000C943E000C943E007E
S11300100C943E000C943E000C943E000C943E0064
S11300200C943E000C943E000C943E000C943E0054
S11300300C943E000C943E000C943E000C943E0044
S11300400C943E000C943E000C943E000C943E0034
S11300500C943E000C943E000C943E000C943E0024
S11300600C943E000C943E0011241FBECFEFD8E048
S1130070DEBFCDBF0E947B000C94D7010C9400001E
S1130080EF92FF920F931F93CF93DF93BC018827C6
S113009077FD8095982F0E94C00020E030E040E278
S11300A050E40E942301162F072FF82EE92E20E09A
S11300B030E0A9010E941F011816B4F4C0E0D0E09A
S11300C082E08A95F1F700C02196BE01882777FD6A
S11300D08095982F0E94C000212F302F4F2D5E2D28
S11300E00E94BA00882364F3DF91CF911F910F918E
S11300F0FF90EF90089581E084B980E880937A00BE
S113010010927C00CAE7D0E00F2EF8E7CF2ED12C56
S1130110F02DE12C6894FF24F2F80F2EF6E08F2ED8
S1130120F02D0F2EFAE09F2EF02D0F2EF9E0AF2EBA
S1130130F02D0F2EF5E0BF2EF02D8881806488838A
S1130140888184FFFDCFF601808191818701081B9E
S1130150190B85B8C8010E94400095B8C8010E94D7
S11301604000A5B8C8010E944000B5B8C8010E946B
S11301704000E3CF40D008F481E00895E89409C03A
S113018097FB3EF490958095709561957F4F8F4FC6
S11301909F4F9923A9F0F92F96E9BB279395F695DC
S11301A0879577956795B795F111F8CFFAF4BB0F5A
S11301B011F460FF1BC06F5F7F4F8F4F9F4F16C0BE
S11301C0882311F096E911C0772321F09EE8872F48
S11301D0762F05C0662371F096E8862F70E060E004
S11301E02AF09A95660F771F881FDAF7880F96957D
S11301F0879597F90895990F0008550FAA0BE0E821
S1130200FEEF16161706E807F907C0F012161306D4
S1130210E407F50798F0621B730B840B950B39F414
S11302200A2661F0232B242B252B21F408950A267A
S113023009F4A140A6958FEF811D811D0895DBDF90
S113024008F48FEF08950BD078C069D028F06ED0F1
S113025018F0952309F05AC05FC01124A2C07ED0C3
S1130260A0F3959FD1F3950F50E0551F629FF001C5
S1130270729FBB27F00DB11D639FAA27F00DB11D1E
S1130280AA1F649F6627B00DA11D661F829F2227A7
S1130290B00DA11D621F739FB00DA11D621F839F2E
S11302A0A00D611D221F749F3327A00D611D231F04
S11302B0849F600D211D822F762F6A2F11249F5752
S11302C050408AF0E1F088234AF0EE0FFF1FBB1F75
S11302D0661F771F881F91505040A9F79E3F510514
S11302E070F014C05EC05F3FECF3983EDCF386957B
S11302F077956795B795F795E7959F5FC1F7FE2BBF
S1130300880F911D9695879597F9089597F99F679A
S113031080E870E060E008959FEF80EC0895002489
S11303200A941616170618060906089500240A9456
S113033012161306140605060895092E0394000CDC
S113034011F4882352F0BB0F40F4BF2B11F460FF6B
S113035004C06F5F7F4F8F4F9F4F089557FD905894
S1130360440F551F59F05F3F71F04795880F97FB75
S1130370991F61F09F3F79F087950895121613062F
S11303801406551FF2CF4695F1DF08C0161617065E
S11303901806991FF1CF8695710561050894089593
S11303A0E894BB2766277727CB0197F90895F8943B
S10503B0FFCF79
S9030000FC
