S00E00004441325432432E7372656396
S11300000C9434000C943E000C943E000C943E007E
S11300100C943E000C943E000C943E000C943E0064
S11300200C943E000C943E000C943E000C943E0054
S11300300C943E000C943E000C943E000C943E0044
S11300400C943E000C943E000C943E000C943E0034
S11300500C943E000C943E000C943E000C943E0024
S11300600C943E000C943E0011241FBECFEFD8E048
S1130070DEBFCDBF0E9440000C9458000C940000D9
S11300808FEF84B981E387B991E02FE73AE186E005
S1130090215030408040E1F700C0000088B189273A
S11300A088B988B1813089F785B18F5F85B9EDCF83
S10700B0F894FFCFEE
S9030000FC
