S00E00004441325433432E7372656395
S11300000C9434000C943E000C943E000C943E007E
S11300100C943E000C943E000C943E000C943E0064
S11300200C943E000C943E000C943E000C943E0054
S11300300C943E000C943E000C943E000C943E0044
S11300400C943E000C943E000C943E000C943E0034
S11300500C943E000C943E000C943E000C943E0024
S11300600C943E000C943E0011241FBECFEFD8E048
S1130070DEBFCDBF0E9440000C9476000C940000BB
S11300808FEF84B981E387B980E090E051E070E3B9
S113009020E030E060E14FE7EAE1F6E04150E04083
S11300A0F040E1F700C0000048B1452748B948B125
S11300B0413049F048B1413131F048B1413219F091
S11300C048B1413341F745B14F5F45B90196853099
S11300D0910521F448B1462748B9DDCF8A3091050E
S11300E0D1F688B1872788B9C901D5CFF894FFCF55
S9030000FC
