:020000020000FC
:040000000C941B0041
:100010000C940A00409B0EC05395553019F05A308D
:1000200019F006C030E102C030E350E0132718B9E0
:10003000239525B9189508E00EBF0FEF0DBF61E0BD
:1000400060936C0062E06093680078940FEF04B9ED
:1000500001E307B901E010E820E018B950E003D04F
:10006000102718B9FCCF45E8409385004EEE409329
:10007000840040E04093800043E04093810046B319
:1000800040FFFDCF40E04093810041E046BB089532
:00000001FF
