S00B00004441342E7372656360
S11300000C9434000C943E000C943E000C943E007E
S11300100C943E000C943E000C943E000C943E0064
S11300200C943E000C943E000C943E000C943E0054
S11300300C943E000C943E000C943E000C943E0044
S11300400C943E000C943E000C943E000C943E0034
S11300500C943E000C943E000C943E000C943E0024
S11300600C943E000C943E0011241FBECFEFD8E048
S1130070DEBFCDBF0E9440000C9420010C94000010
S1130080CF93DF93CDB7DEB728970FB6F894DEBFD2
S11300900FBECDBF83E384BD99E095BD80938000FE
S11300A029E1209381008093B0009093B1008FEFF9
S11300B084B98AB9812C912C0F2EF1EE4F2E512C3C
S11300C0F02D0F2EF1EE2F2E312CF02D0F2EF3E00C
S11300D06F2E712CF02D2AE830E0E4EBF0E00F2EC7
S11300E0FBE4EF2EF12CF02D06E910E06FEF861AF9
S11300F0960A8FE493EC0197F1F700C0000091EEAB
S113010097BDA8E8B0E011963C922E92A3EBB0E024
S11301109C93C4010196B3010E94F8005C01C401E0
S11301200296B3010E94F8006C01C401B3010E945D
S1130130F80042EE50E0D501AA0FBB1F61E070E069
S11301406C0F7D1FA60FB71FCC0CDD1CC60ED71E6F
S1130150880F991F860F971F5D0198878F83FA82F6
S1130160E9821C830B831E821D828FE493EC01972A
S1130170F1F700C0000068B56E5F68BD68B570E057
S1130180613E71051CF0D5016C9168BDD9016D917A
S11301907C9111976D5F7F4F11967C936E936D9157
S11301A07C91613E710538F0D6016D917C91D90145
S11301B011967C936E9360816B5F6083608170E0C5
S11301C0613E710524F0AF81B8856C916083415024
S11301D0510929F6B9E14B1A51086AE1461651044E
S11301E00CF084CF0F2EF1EE4F2E512CF02D7ECF3C
S11301F097FB072E16F4009407D077FD09D00E94D0
S11302000C0107FC05D03EF4909581959F4F08950D
S1130210709561957F4F0895AA1BBB1B51E107C0E0
S1130220AA1FBB1FA617B70710F0A61BB70B881F82
S1130230991F5A95A9F780959095BC01CD01089511
S1070240F894FFCF5C
S9030000FC
