S00B00004441342E7372656360
S11300000C9434000C943E000C943E000C943E007E
S11300100C943E000C943E000C943E000C943E0064
S11300200C943E000C943E000C943E000C943E0054
S11300300C943E000C943E000C943E000C943E0044
S11300400C943E000C943E000C943E000C943E0034
S11300500C943E000C943E000C943E000C943E0024
S11300600C943E000C943E0011241FBECFEFD8E048
S1130070DEBFCDBF0E9440000C94CF000C94000062
S1130080CF93DF9300D000D0CDB7DEB783E384BD38
S113009099E095BD8093800029E1209381008093AD
S11300A0B0009093B1008FEF84B98AB961EE70E02B
S11300B00F2EF3EB2F2E312CF02D0F2EF1EEEF2E11
S11300C0F12CF02D0F2EF8E84F2E512CF02D0AE8CC
S11300D010E0E4EBF0E0C12CD12C8C2C9D2C6E2C88
S11300E07F2CAC2CBD2CD1016C93970127BD698268
S11300F07A8249815A81D20111965C934E93552399
S1130100C4F1DC82CB828FE097E20197F1F700C063
S113011000004B815C81D80111965C934E93772348
S1130120ECF0482D592D8FE097E20197F1F700C0CC
S11301300000408333236CF08A2D9B2DAFE0B7E29F
S11301401197F1F700C0000088BD029628173907FF
S1130150ACF7475F5F4F641775072CF74B815C81E1
S1130160415F5F4F5C834B8389819A818417950734
S113017054F6A981BA815997BA83A983599709F08A
S1130180B8CF295131092931310509F0AFCF69516F
S113019071096A3171050CF0A6CFB701A4CFF894A8
S10501A0FFCF8B
S9030000FC
